:100000000C94A7000C94C4000C94C4000C94C4007D
:100010000C94C4000C94C4000C9457030C94C400BA
:100020000C94C4000C9499020C94C4000C94C40069
:100030000C94C4000C94C4000C94C4000C94C40030
:100040000C94C4000C94C4000C94C4000C94C40020
:100050000C94C4000C010D010D010D010D010D01E9
:100060000D010D010D010A01080106010401020143
:100070000001FE00FC00FA00F8000D01F600F4009B
:10008000F200F000EE000D010D010D01EC00EA00A0
:100090002B023202320232023202320232023202C7
:1000A000320223021B0213020B020302FB01F301C3
:1000B000EB01E301DB013202D301CB01C301BB0140
:1000C000B301320232023202AB01A30107634236AE
:1000D000B79BD8A71A39685618AEBAAB558C1D3CD9
:1000E000B7CC5763BD6DEDFD753EF6177231BF009D
:1000F0000000803F08000000BE922449123EABAAD7
:10010000AA2ABECDCCCC4C3E00000080BEABAAAA31
:10011000AA3E00000000BF000000803F0000000079
:1001200000084178D3BB4387D1133D190E3CC3BDB2
:100130004282AD2B3E68EC8276BED98FE1A93E4C5F
:1001400080EFFFBE01C4FF7F3F00000000001124CC
:100150001FBECFE5D4E0DEBFCDBF11E0A0E6B0E02A
:10016000ECE3FFE002C005900D92A03AB107D9F789
:1001700011E0A0EAB1E001C01D92A33BB107E1F795
:100180000E94C6000C949C070C940000CF93DF9350
:100190000E94DB000E9494020E9454037894C0E203
:1001A000DEE40E94C7020E94AA030E943E02CE0122
:1001B0000197F1F7F6CF8FE190E0FC013297EE3135
:1001C000F10558F5E65DFF4FEE0FFF1F0590F49126
:1001D000E02D09948E9A21C0A09A1FC0A19A1DC03B
:1001E000A29A1BC0A39A19C0A49A17C0A59A15C0B9
:1001F000A69A13C0A79A11C0D79A0FC0D69A0DC05D
:10020000D59A0BC0D49A09C0D39A07C0D29A05C018
:10021000D19A03C08F9A01C0D09A01972FEF8F3FD8
:10022000920759F61092AE0108959091AE01209177
:10023000AF013091B0014091B1015091B2017727E7
:1002400067FD7095A82FBB27A7FDB0959923A1F452
:100250005068FD0193E0EE0FFF1F9A95E1F7AA0F9A
:10026000BB1FEA0FFB1FE60FF71FEE0FFF1FEE0F7E
:10027000FF1FE05AFF4F13C05064FD0183E0EE0FF3
:10028000FF1F8A95E1F7AA0FBB1FEA0FFB1FE60FBE
:10029000F71FEE0FFF1FEE0FFF1FE050FF4F808193
:1002A0009181A281B381282B392B4A2B5B2B209380
:1002B000AF013093B0014093B1015093B201089562
:1002C000882389F08091AF019091B001A091B10194
:1002D000B091B20184608093AF019093B001A0937C
:1002E000B101B093B2010895EF92FF920F931F9363
:1002F0004091AF015091B0016091B1017091B20194
:100300002FE130E0E1E0EE2EF12C012D112DD8018E
:10031000C701022E04C0880F991FAA1FBB1F0A9491
:10032000D2F784239523A623B723F9013297EE3120
:10033000F10508F097C0E85BFF4FEE0FFF1F059037
:10034000F491E02D09940097A105B10511F0969A5A
:1003500089C0969887C00097A105B10511F0A89AA9
:1003600081C0A8987FC00097A105B10511F0A99A96
:1003700079C0A99877C00097A105B10511F0AA9A94
:1003800071C0AA986FC00097A105B10511F0AB9A92
:1003900069C0AB9867C00097A105B10511F0AC9A90
:1003A00061C0AC985FC00097A105B10511F0AD9A8E
:1003B00059C0AD9857C00097A105B10511F0AE9A8C
:1003C00051C0AE984FC00097A105B10511F0AF9A8A
:1003D00049C0AF9847C00097A105B10511F0DF9A59
:1003E00041C0DF983FC00097A105B10511F0DE9A2A
:1003F00039C0DE9837C00097A105B10511F0DD9A2C
:1004000031C0DD982FC00097A105B10511F0DC9A2D
:1004100029C0DC9827C00097A105B10511F0DB9A2F
:1004200021C0DB981FC00097A105B10511F0DA9A31
:1004300019C0DA9817C00097A105B10511F0D99A33
:1004400011C0D9980FC00097A105B10511F0979A76
:1004500009C0979807C00097A105B10511F0D89A77
:1004600001C0D898215030408FEF2F3F380709F056
:100470004ECF1F910F91FF90EF90089590E08091E3
:10048000AE01882309F491E09093AE011092AF0180
:100490001092B0011092B1011092B20180E060910F
:1004A000AA010E94150181E06091AB010E94150133
:1004B00082E06091AC010E94150183E06091AD0182
:1004C0000E9415018091A901882389F08091AF01D4
:1004D0009091B001A091B101B091B201846080937C
:1004E000AF019093B001A093B101B093B2010E940B
:1004F0007401089583B78F7B83BF83B7877F83BFE2
:1005000083B78F7E83BF83B78F7D83BF83B78460BC
:1005100083BF83B78D7F83BF83B78E7F83BF12BEB8
:1005200089B7816089BF08958D988B980E947A025F
:1005300008951F920F920FB60F9211248F939F93DD
:100540008091A301880F8093A3019091A201990F3C
:100550009093A201859B81608093A301839B91600E
:100560009093A2018091A3018F3719F481E08093C9
:10057000A0018091A2018F3719F481E08093A1013D
:100580009F918F910F900FBE0F901F9018958091A3
:10059000A001882321F01092A0010E941B038091EA
:1005A000A101882321F01092A1010E94D802089590
:1005B0008091A4018230A9F0833018F48130D1F504
:1005C00005C0833011F18430A9F52AC08091AA01B9
:1005D00082301CF01092AA0108958F5F8093AA01C7
:1005E00008958091AA0182302CF08091AB01833074
:1005F00044F004C08091AB0189301CF01092AB0133
:1006000008958F5F8093AB0108958091AC01853090
:100610001CF01092AC0108958F5F8093AC01089597
:100620008091AD0189301CF01092AD0108958F5F6B
:100630008093AD0108958091A4018F5F8093A40100
:10064000853090F01092A7018AEA91E062E045EAD5
:1006500051E00E94C1038CEA91E062E046EA51E079
:100660000E94C1031092A40108958EB58F7E8EBDA5
:100670008EB588608EBD8FB58D7F8FBD8FB58E7F17
:100680008FBD8EB584608EBD8EB58D7F8EBD8EB5CF
:100690008E7F8EBD1DBC1CBC81E19AE79BBD8ABDCF
:1006A00089B7806189BF08950E94350308951F921C
:1006B0000F920FB60F9211248F939F938091A401F4
:1006C000882349F590E08091A901882309F491E0FD
:1006D0009093A9018091A7018B33D4F081E080939E
:1006E000A8018091A6018B336CF08091A501873120
:1006F0001CF01092A50103C08F5F8093A50110929A
:10070000A60103C08F5F8093A6011092A70103C0CA
:100710008F5F8093A7019F918F910F900FBE0F90D5
:100720001F901895262F2150E22FFF27E7FDF09507
:100730002F5FE80FF91F2150842F6AE00E94830782
:100740009083842F6AE00E948307482F31972223E9
:1007500091F708958091A801882391F08091A401D8
:10076000882371F48AEA91E062E04091A5010E9439
:1007700092038CEA91E062E04091A6010E9492030C
:1007800008952F923F924F925F926F927F928F9235
:100790009F92AF92BF92CF92DF92EF92FF920F9310
:1007A0001F93CF93DF931C012A01AA24C0E0D0E05D
:1007B000862E992487FC909434010894610871086E
:1007C00036C0B3016C1B7D0B882777FD8095982F71
:1007D0000E94C7049B01AC0160E070E080E291E4FC
:1007E0000E94B6057B018C016A2D772767FD709505
:1007F000872F972F0E94C7045B016C01F101EC0F5A
:10080000FD1F6081772767FD7095872F972F0E94C6
:10081000C704A80197010E9453059B01AC01C601C2
:10082000B5010E9430040E949404A62E2196C8159A
:10083000D9053CF2F201A082DF91CF911F910F9177
:10084000FF90EF90DF90CF90BF90AF909F908F90F0
:100850007F906F905F904F903F902F9008955058E9
:10086000BB27AA270ED0E5C0D6D030F0DBD020F0D1
:1008700031F49F3F11F41EF4CBC00EF4E095E7FB7A
:10088000C1C0E92FE7D080F3BA1762077307840766
:10089000950718F071F49EF5FFC00EF4E0950B2E4D
:1008A000BA2FA02D0B01B90190010C01CA01A001C2
:1008B0001124FF27591B99F0593F50F4503E68F11D
:1008C0001A16F040A22F232F342F4427585FF3CF5E
:1008D000469537952795A795F0405395C9F77EF42F
:1008E0001F16BA0B620B730B840BBAF09150A1F078
:1008F000FF0FBB1F661F771F881FC2F70EC0BA0FFE
:10090000621F731F841F48F4879577956795B79585
:10091000F7959E3F08F0B3CF9395880F08F099277D
:10092000EE0F97958795089504D06894B111B5C0DE
:10093000089598D088F09F5790F0B92F9927B75114
:10094000A0F0D1F0660F771F881F991F1AF0BA9593
:10095000C9F712C0B13081F09FD0B1E008959CC0BA
:10096000672F782F8827B85F39F0B93FCCF3869589
:1009700077956795B395D9F73EF4909580957095E6
:1009800061957F4F8F4F9F4F0895E89409C097FB63
:100990003EF490958095709561957F4F8F4F9F4F56
:1009A0009923A9F0F92F96E9BB279395F69587959A
:1009B00077956795B795F111F8CFFAF4BB0F11F45D
:1009C00060FF1BC06F5F7F4F8F4F9F4F16C0882304
:1009D00011F096E911C0772321F09EE8872F762F3A
:1009E00005C0662371F096E8862F70E060E02AF07B
:1009F0009A95660F771F881FDAF7880F9695879567
:100A000097F9089597F99F6780E870E060E008958E
:100A10009FEF80EC089500240A9416161706180616
:100A20000906089500240A941216130614060506F2
:100A30000895092E0394000C11F4882352F0BB0F83
:100A400040F4BF2B11F460FF04C06F5F7F4F8F4FE6
:100A50009F4F089557FD9058440F551F59F05F3F21
:100A600071F04795880F97FB991F61F09F3F79F0D0
:100A700087950895121613061406551FF2CF469552
:100A8000F1DF08C0161617061806991FF1CF8695D4
:100A90007105610508940895E894BB2766277727B8
:100AA000CB0197F908950BD0C4CFB5DF28F0BADF9A
:100AB00018F0952309F0A6CFABCF1124EECFCADFF3
:100AC000A0F3959FD1F3950F50E0551F629FF00161
:100AD000729FBB27F00DB11D639FAA27F00DB11DBA
:100AE000AA1F649F6627B00DA11D661F829F222743
:100AF000B00DA11D621F739FB00DA11D621F839FCA
:100B0000A00D611D221F749F3327A00D611D231F9F
:100B1000849F600D211D822F762F6A2F11249F57ED
:100B200050408AF0E1F088234AF0EE0FFF1FBB1F10
:100B3000661F771F881F91505040A9F79E3F5105AF
:100B400070F060CFAACF5F3FECF3983EDCF3869560
:100B500077956795B795F795E7959F5FC1F7FE2B5A
:100B6000880F911D9695879597F90895FA01EE0FD4
:100B7000FF1F30962105310599F16115710561F46A
:100B80008038BFE39B0749F168949038810561F094
:100B90008038BFEF9B0741F0992342F5FF3FE10505
:100BA0003105210511F1E8940894E795D901AA23AC
:100BB00029F4AB2FBE2FF85FD0F310C0FF5F70F4A5
:100BC000A695E0F7F73950F019F0FF3A38F49F771F
:100BD0009F930CD00F9007FC905808953EF018CFCB
:100BE00060E070E080E89FE308954FE79F775F93B0
:100BF0004F933F932F939ED02F913F914F915F91B1
:100C000052DF05C019F40EF0FDCE46CF01CF2ADF2A
:100C1000C8F39638C0F707F80F92E8942BE33AEA46
:100C200048EB5FE74EDF0F920F920F924DB75EB722
:100C30000F92C0D0ECECF0E016D04F915F91EF91A5
:100C4000FF91E595EE1FFF1F49F0FE57E06844272E
:100C5000EE0F441FFA95E1F74195550B32D00F90F6
:100C600007FE26C00895DF93CF931F930F93FF9243
:100C7000EF92DF927B018C01689405C0DA2EEF01C0
:100C80001EDFFE01E894A59125913591459155917E
:100C9000AEF3EF01F6DDFE019701A801DA9479F7D2
:100CA000DF90EF90FF900F911F91CF91DF9108950A
:100CB0009B01AC0160E070E080E89FE3AEC0A2CE93
:100CC00014C1D0DEE8F39923D9F3940F511DBBF37F
:100CD0009150504094F059F0882332F0660F771FFE
:100CE000881F91505040C1F79E3F510544F7880F2F
:100CF000911D9695879597F908955F3FACF0983EC2
:100D00009CF0BB27869577956795B79508F4B160F9
:100D10009395C1F7BB0F58F711F460FFE8CF6F5FF1
:100D20007F4F8F4F9F4FE3CFB8CE0EF0DEC070CE17
:100D3000689468CE97DEC8F39923D1F3C6F3DF93A6
:100D4000CF931F930F93FF92C92FDD2788232AF09B
:100D50002197660F771F881FDAF720E030E040E820
:100D60005FEB9FE3883920F0803E30F021968F774B
:100D700077DDE4EFF0E003C073DDE1E2F1E073DF83
:100D80008B01BE01EC01FB2E6F5771097595771F22
:100D9000880B990BFCDD28E132E741E35FE38FDE4E
:100DA000AF2D9801AE01FF900F911F91CF91DF9170
:100DB00068DD3FCEFA01DC01AA0FBB1F9B01AC012D
:100DC000BF5728F422273327442750781FC0B75134
:100DD00088F4AB2F0024469537952795011CA395E1
:100DE000D2F3002069F0220F331F441FB395DAF3CA
:100DF0000DD035CD61307105A0E88A07B94630F4D1
:100E00009B01AC016627772788279078309621F0E0
:100E1000208331834283538308950CD00ACE02DEAF
:100E200040F0F9DD30F021F45F3F19F0EBCD5111C6
:100E300034CEEECD0FDE98F39923C9F35523B1F3E9
:100E4000951B550BBB27AA2762177307840738F039
:100E50009F5F5F4F220F331F441FAA1FA9F333D098
:100E60000E2E3AF0E0E830D091505040E695001C4C
:100E7000CAF729D0FE2F27D0660F771F881FBB1F08
:100E8000261737074807AB07B0E809F0BB0B802DE2
:100E9000BF01FF2793585F4F2AF09E3F510568F02E
:100EA000B1CDFBCD5F3FECF3983EDCF386957795B3
:100EB0006795B795F7959F5FC9F7880F911D969530
:100EC000879597F90895E1E0660F771F881FBB1F8C
:100ED000621773078407BA0720F0621B730B840B39
:100EE000BA0BEE1F88F7E09508959F3F31F09150BF
:100EF00020F4879577956795B795880F911D9695FE
:100F0000879597F9089587FB082E062687FD81951A
:100F100067FD619505D00EF4919507FC81950895C4
:100F2000991B79E004C0991F961708F0961B881F3B
:0C0F30007A95C9F780950895F894FFCFDA
:100F3C00000000000000000000000003000000039F
:100F4C00000000000000000300000003000000028D
:100F5C0000000003000000030000980000000000E7
:100F6C000000D000000050000000480000005800B5
:100F7C000000D800000000000000D800000058005D
:100F8C0000800300008001000000030000800300CB
:100F9C00008001000080020000800200008003003D
:100FAC0000800300008003000058000000000000D7
:100FBC000070000000300000002800000038000025
:100FCC0000780000000000000078000000380000ED
:100FDC0000000000000080040000000700008006F4
:100FEC0000008006000080020000800300008004E6
:100FFC000000800700008006000058000000500030
:10100C0000004800000058000000500000001800CC
:10101C0000001800000058000000580000005800A4
:10102C0000C002000000000000C0010000800100B0
:10103C00000003000080030000C00300000000005B
:10104C0000C00300008003000038000000300000E6
:10105C0000280000003800000030000000180000DC
:10106C0000180000003800000038000000380000B4
:00000001FF
